:020000040800F2
:1000000028210020A9010008CF1800087D1700084A
:10001000CD180008B50200084D1E000800000000C1
:10002000000000000000000000000000E5190008CA
:10003000B702000800000000D1180008E719000806
:10004000C3010008C3010008C3010008C301000880
:10005000C3010008C3010008C3010008C301000870
:10006000C3010008C3010008C3010008C301000860
:10007000C3010008C3010008C3010008C301000850
:10008000C3010008C3010008C3010008000000000C
:10009000000000000000000000000000C301000894
:1000A000C3010008C3010008C3010008C301000820
:1000B000911A0008C3010008C3010008C301000829
:1000C000C3010008C3010008C3010008C301000800
:1000D000C3010008C3010008C301000800000000BC
:1000E000C3010008C3010008C301000800000000AC
:1000F000000000000000000000000000C301000834
:1001000000000000C3010008C3010008C30100088B
:1001100000000000000000000000000000000000DF
:10012000C3010008C3010008C3010008C30100089F
:10013000C3010008000000000000000000000000F3
:10014000000000000000000000000000C3010008E3
:10015000C3010008C3010008C3010008411E0008D4
:10016000C3010008C30100080000000000000000F7
:10017000000000000000000000000000000000007F
:1001800000000000C30100080000000000000000A3
:10019000C3010008DFF80CD000F07AF800480047EF
:1001A000E927000828210020064880470648004724
:1001B000FEE7FEE7FEE7FEE7FEE7FEE7FEE7FEE717
:1001C000FEE7FEE7811A0008950100082DE9F05FBF
:1001D0000546002092469B468846064681464024B6
:1001E0001BE0284641464746224600F041F8534668
:1001F0005A46C01A914110D311461846224600F0C3
:1002000028F82D1A67EB01084F46224601200021ED
:1002100000F01FF817EB00094E41201EA4F1010465
:10022000DFDC484631462A464346BDE8F09FD2B25D
:1002300001E000F8012B491EFBD270470022F6E7CF
:1002400010B513460A4604461946FFF7F0FF20464C
:1002500010BD202A04DB203A00FA02F1002070478A
:100260009140C2F1200320FA03F3194390407047F4
:10027000202A04DB203A21FA02F00021704721FAFB
:1002800002F3D040C2F12002914008431946704762
:10029000064C074D06E0E06840F0010394E80700D3
:1002A00098471034AC42F6D3FFF778FFDC280008FB
:1002B000FC280008FEE770472DE9F0410446876DF1
:1002C00000F05EF9064694F835000025022806D0B5
:1002D0008020606584F834500120BDE8F0812068FA
:1002E000016821F0160101602068416921F0800158
:1002F0004161206C08B9A06C20B12068016821F030
:10030000080101602068016821F0010101600CE032
:1003100000F036F9801B052807D9202060650320EE
:1003200084F8350084F83450D7E720680068C007A7
:10033000EED194F85C103F208840B860012084F82A
:10034000350084F834500020C7E790F835100229B2
:1003500003D08021416501207047052180F83510C8
:100360000068016821F00101016000207047000071
:1003700070B5044600F004F90546601C02D004483C
:100380000078044400F0FCF8401BA042FAD370BD92
:100390002C0000202DE9F84FDFF8B8A1002201243D
:1003A0000AF1040B03254FF00F090BF1040E00BFF7
:1003B0000B6804FA02F63340B34273D10F7907F0A9
:1003C0000307012F01D0022F16D187684FEA420898
:1003D00005FA08FC27EA0C07D1F80CC00CFA08FC57
:1003E0004CEA070CC0F808C04768B7430E79C6F35B
:1003F000001696403E4346600E79F643B6070DD090
:10040000C768560005FA06FC27EA0C07D1F808C0B1
:100410000CFA06FC4CEA070CC0F80CC00E7906F08A
:100420000306022E10D1D60800EB8608D8F820600B
:1004300057074FEAD76C09FA0CF7BE430F6907FA62
:100440000CF73743C8F8207006684FEA420C05FAEB
:100450000CF7BE430F7907F0030707FA0CF7374391
:1004600007604E6816F4403F6DD03B4E376847F446
:1004700080473760366822F0030706F4804600960E
:10048000364E07EB060CDCF8086897073F0F09FAB1
:1004900007F826EA0806DFF8C880404503D14FF088
:1004A00000081EE04FE0DFF8BC80404502D14FF06D
:1004B000010816E0DFF8B080404502D14FF0020895
:1004C0000FE0DFF8A880404502D14FF0030808E0B4
:1004D000DFF89C80404502D14FF0040801E04FF066
:1004E000070808FA07F848EA0608CCF80888DAF896
:1004F00000605746D1F804C09E435FEACC3C00D56B
:100500001E433E60DBF800605F46D1F804C09E43A6
:100510005FEA8C3C00D51E433E60DEF80060774603
:10052000D1F804C09E435FEACC2C00D51E433E6048
:10053000084F0C373E68D1F804C09E435FEA8C2C0C
:1005400000D51E433E60521C102AFFF431AFBDE8B7
:10055000F88F0000003C0140443802400030014068
:10056000000002400004024000080240000C02406B
:10057000001002400AB1816170470904FBE70000E6
:1005800001488068704700002C0000200248816804
:1005900002781144816070472C0000200B4810B590
:1005A000016841F400710160016841F480610160FB
:1005B000016841F480710160032000F06FF80F20A2
:1005C00000F006F800F024F8002010BD003C0240C6
:1005D00070B50D4D04464FF47A712878B1FBF0F0F8
:1005E0000A490968B1FBF0F000F0A3FC48B9102CEF
:1005F00007D200222146501E00F030F800206C6027
:1006000070BD012070BD00002C00002038000020CB
:100610000A4808B5016841F480410160006800F4AF
:10062000804000900548001F016841F08051016042
:10063000006800F08050009008BD0000443802407F
:10064000002809DB00F01F020121914040098000D1
:1006500000F1E020C0F8001170470000F0B40E4B2C
:100660001B680C46C3F30223C3F10705042D00D910
:100670000425191D072901D2002300E0DB1E0126F5
:1006800006FA05F1491E214099409E40761E16400B
:100690003143F0BC01F04ABE0CED00E0064900F029
:1006A000070208684FF6FF03184040EA0220034A99
:1006B00010430860704700000CED00E00000FA05F0
:1006C0002DE9F0470E46050065D0DFF81481D8F813
:1006D0000000F7B200F00700B04207D288F80070BF
:1006E000D8F8000000F00700B04254D128683D4C13
:1006F000810712D5400703D5206840F4E050206000
:100700002878000703D5206840F460402060206806
:10071000A96820F0F000084320602878C0072DD099
:10072000304968680839012812D0022813D00328FC
:1007300011D00968890700292DDA216821F0030109
:1007400001432160FFF71CFF814641F2883A0EE029
:1007500009688903EFE709688901ECE7FFF710FFF3
:10076000A0EB0901514502D90320BDE8F0872068BC
:10077000696800F00C00B0EB810FEFD1D8F80010E1
:10078000404601F00701B14207D90770006800F048
:100790000700B04201D00120E7E72878400705D5DF
:1007A0002068E96820F4E0500843206028780007BA
:1007B00006D52068296920F4604040EAC100206025
:1007C00000F038F82168084AC1F30311515CC840B1
:1007D0000649086006480068FFF7FAFE0020C4E7F3
:1007E000003C024008380240C428000838000020BD
:1007F000300000200448054900680968044AC1F334
:100800008221515CC84070473800002008380240FF
:10081000D42800080448054900680968044AC1F35F
:100820004231515CC840704738000020083802400F
:10083000D4280008154810B5006810F00C021448C0
:1008400013D01449042A0FD0082A0ED10F4C241FAC
:100850002268236802F03F025B0207D52068C0F3DC
:100860008810A0FB010106E0084610BD2168C1F315
:100870008811A1FB00010023FFF7A8FC2168C1F348
:100880000141491C4900B0FBF1F010BD083802409D
:100890000024F40040787D012DE9F84F04006ED06B
:1008A0002078DFF84C93C007A9F104054AD009F17C
:1008B00004000168C1F38101012908D00068C0F378
:1008C000810002280AD1D9F80000400206D5286824
:1008D000800337D560680028E1D033E06068B0F568
:1008E000803F10D0B0F5A02F286810D020F48030C1
:1008F0002860286820F4802028606068A8B1FFF78D
:100900003FFE06460DE0286840F48030F4E740F4EE
:1009100080202860F7E700BFFFF732FE801B6428C5
:1009200073D828688003F7D50CE0FFF729FE064648
:1009300005E000BFFFF724FE801B6428F0D828687C
:100940008003F7D42078DFF8AC8280074FF0000AEC
:100950003ED5A748001D016811F00C0F08D00068B3
:10096000C0F3810002280BD1D9F80000400207D45F
:100970002868800716D5E068012800D112E033E12D
:10098000E068B8B10120C8F80000FFF7F9FD06469D
:1009900005E000BFFFF7F4FD801B0228C0D82868DF
:1009A0008007F7D52868216920F0F80040EAC100E7
:1009B00028600DE0C8F800A0FFF7E2FD064604E05D
:1009C000FFF7DEFD801B02281FD828688007F7D4B8
:1009D0002078000722D5864F87486169703771B14A
:1009E00001210160FFF7CCFD064604E0FFF7C8FDDA
:1009F000801B022809D838688007F7D50EE0C0F8B8
:100A000000A0FFF7BDFD064605E082E0FFF7B8FD58
:100A1000801B02287DD838688007F7D420784007EB
:100A200068D5DFF8CCB100270BF13C0BDBF80000F8
:100A3000C0000BD4DBF8001041F08051CBF800105F
:100A4000DBF80000012700F0805000906B4E30680A
:100A5000C00510D4306840F480703060FFF790FD1E
:100A6000009005E0FFF78CFD0099401A022850D84D
:100A70003068C005F6D55E4EA0686C3601280FD0F0
:100A80000528306810D020F001003060306820F078
:100A900004003060A068B8B1FFF772FD00900FE06D
:100AA000306840F00100F4E740F004003060F7E700
:100AB000FFF766FD0099411A41F28830814266D8FD
:100AC00030688007F4D50EE0FFF75AFD009007E08C
:100AD000FFF756FD0099411A41F28830814256D8FD
:100AE00030688007F4D42FB1DBF8001021F080517A
:100AF000CBF80010A069C8B33D49091D0968C1F3CE
:100B0000810102294AD00228504607D0C8F8600067
:100B100000E03CE0FFF734FD04463BE04746C8F800
:100B20006000FFF72DFD064605E000BFFFF728FD3A
:100B3000801B02282BD828688001F7D4D4E907014C
:100B40000843A16A2E4A490802EB0141626A41EA60
:100B50008211084394F82C1040EA0161C9F8001092
:100B600001203866FFF70CFD044606E03EE000BFBA
:100B7000FFF706FD001B022809D828688001F7D579
:100B800034E000BFFFF7FCFC001B022802D9032061
:100B9000BDE8F88F28688001F4D427E00128F7D059
:100BA000D9F80000E26900F4800191421CD1226A68
:100BB00000F03F01914217D147F6C071626A0140CF
:100BC000B1EB821F10D1A26A4FF0FF3300F4403125
:100BD00003EB5202B1EB024F06D194F82C1000F057
:100BE0007060B0EB016F01D00120D1E70020CFE7AA
:100BF0000438024000004742800E47420070004027
:100C00000000FFFF70B5040009D0606A002540B104
:100C100025616561A56294F8510040B10CE00120A6
:100C200070BD6068B0F5827FF4D0E561F2E784F8CA
:100C30005050204600F044F8022084F8510020680B
:100C4000016821F040010160A088218900F48270D0
:100C500001F404410843A18901F400610843217CA7
:100C600001F002010843217D01F001010843218BBD
:100C700001F400710843217F01F03801084394F822
:100C8000201001F080010843218D01F40051084338
:100C900021680860A069042101EA104094F824103A
:100CA00001F010010843216848602068C16921F4FF
:100CB0000061C1616565012084F85100002070BDAC
:100CC000F0B587B0044614216846FFF7B7FA1C490F
:100CD0002068884232D11B480024016841F48051C9
:100CE0000160006800F480500590164814380168CF
:100CF00041F001010160016801F001010591016805
:100D000041F0020101600068022500F00200059038
:100D1000A020CDE9000502AA0326052782E8D0001D
:100D200069460948FFF736FB1020CDE9000502AA05
:100D3000694682E8D0000548FFF72CFB07B0F0BDFC
:100D400000300140443802400000024000040240EC
:100D50002DE9F84F044690F8500000270A9E1D46E2
:100D600092468B464FF0010901280ED0012084F8ED
:100D70005000FFF705FC804694F851006168012897
:100D80000CD0B1F5827F07D102E00220BDE8F88FD8
:100D9000A16809B9042801D00227C2E0BBF1000F05
:100DA00027D0BAF1000F24D01DB394F851000428C5
:100DB00002D0052084F8510000206065C4F838A0F6
:100DC000E587A587C4F830B0E586A5862064606411
:100DD00020680168490603D4016841F040010160C0
:100DE000E068B0F5006F606805D0E8B3012D46D02B
:100DF0007FE0012795E008B1012D39D1206B2168F2
:100E00000088C860206B801C2063E08E401EE08656
:100E10002EE02068816889070FD5E18E69B1B9F1AC
:100E2000010F0AD1216B0988C160206B801C2063EF
:100E3000E08E401EE0864FF0000920688168C907F7
:100E40000CD0E18F51B1C068A16B0880A06B801CF1
:100E5000A063E08F401EE0874FF00109FFF790FB91
:100E6000A0EB0800B04200E009E001D3701C50D1B3
:100E7000E08E0028CDD1E08F0028CAD13FE0206B62
:100E8000216800780873206B401C2063E08E401EB0
:100E9000E0862EE02068816889070FD5E18E69B170
:100EA000B9F1010F0AD1216B09780173206B401C45
:100EB0002063E08E401EE0864FF0000920688168C4
:100EC000C9070CD0E18F51B1C068A16B0870A06B4D
:100ED000401CA063E08F401EE0874FF00109FFF740
:100EE0004FFBA0EB0800B04202D3701C01D010E011
:100EF0007EB1E08E0028CDD1E08F0028CAD14246D5
:100F00003146204600F0E6FC28B10127202060652C
:100F100007E0032705E0A06818B92068C168806869
:100F20000090012084F85100002084F850003846D9
:100F30002CE710B5401EB0F1807F01D3012010BD19
:100F40004FF0E02460610F21601701F0EFF90020FD
:100F5000A06107202061002010BD7047704700008D
:100F600070B590F83C20012A2CD0012480F83C4038
:100F7000022280F83D2003685A689D6822F07006BE
:100F80000A6832435A60104B02689A420ED0B2F19E
:100F9000804F0BD00D4B9A4208D00D4B9A4205D092
:100FA0000C4B9A4202D00C4B9A4204D1496825F06E
:100FB00080031943916080F83D40002180F83C1087
:100FC000084670BD022070BD0000014000040040D2
:100FD00000080040000C00400040014010B5040033
:100FE00003D094F83D0010B107E0012010BD0020AF
:100FF00084F83C00204600F01FF8022084F83D00F1
:10100000211D206800F04AFD012084F8460084F884
:101010003E0084F83F0084F8400084F8410084F8E2
:10102000420084F8430084F8440084F8450084F8C2
:101030003D00002010BD000008B50068B0F1804FF1
:1010400012D10A48016841F00101016000680022E4
:1010500000F00100009011461C20FFF7FFFABDE8E8
:1010600008401C20FFF7ECBA08BD000040380240E1
:1010700090F83D10012901D001207047022180F82D
:101080003D100168CA6842F00102CA6000680E495A
:1010900088420ED0B0F1804F0BD00C49884208D066
:1010A0000B49884205D00B49884202D00A49884240
:1010B00004D1816801F00701062903D0016841F0DD
:1010C0000101016000207047000001400004004061
:1010D00000080040000C00400040014070B504468C
:1010E00090F83C000025012817D0012684F83C60C8
:1010F000022084F83D002068826822F0770222F402
:101100007F4282600868502838D00DDC20284FD0FC
:1011100005DC90B3102811D14AE0022070BD3028C0
:1011200046D040280AD13BE060282FD070280DD04F
:10113000B0F5805F03D0B0F5005F12D0012584F8D0
:101140003D60002084F83C00284670BDCB68D1E9A2
:101150000121206800F0EEFC2068816841F07701F1
:1011600009E0CB68D1E90121206800F0E3FC2068A8
:10117000816841F480418160E1E719E0CA6849680B
:10118000206800F0E9FC5021206806E0CA68496840
:10119000206800F0F2FC6021206800F0D5FCCEE76A
:1011A000CA684968206800F0D7FC40212068F4E74D
:1011B000226801461046F0E7704770B504460068A3
:1011C00001694FF00005C943890715D4C168C943B7
:1011D000890711D4E91E0161012020772068806908
:1011E0008007204602D0FFF7E7FF04E000F098F800
:1011F000204600F096F8257720680169C943490721
:1012000017D4C168C943490713D46FF004010161C1
:10121000022020772068806910F4407F204602D0A9
:10122000FFF7CAFF04E000F07BF8204600F079F8F1
:10123000257720680169C943090716D4C168C943E5
:10124000090712D46FF0080101610420207720689B
:10125000C0698007204602D0FFF7AEFF04E000F02F
:101260005FF8204600F05DF8257720680169C943E2
:10127000C90617D4C168C943C90613D46FF0100159
:101280000161082020772068C06910F4407F204663
:1012900002D0FFF791FF04E000F042F8204600F092
:1012A00040F8257720680169C943C90708D1C1689A
:1012B000C943C90704D1891E0161204600F032F8F4
:1012C00020680169C943090609D4C168C9430906F0
:1012D00005D46FF0800101612046FFF73EFE2068D3
:1012E0000169C943490609D4C168C943490605D4FF
:1012F0006FF040010161204600F032F8206801697A
:10130000C94389060BD4C168C943890607D46FF065
:10131000200101612046BDE87040FFF71FBE70BD8F
:101320007047704710B50B490068096888420ED1B4
:10133000094C0A484FF4005122780AB1002200E01B
:101340000122FFF717F9207810B10020207010BD9E
:101350000120FBE798000020000000200008024068
:101360007047704770470000F8B501680446086888
:10137000CA684B6910F00F0F4FF0000559D003F009
:10138000010602F49077374365D0C10705D0D10537
:1013900003D5216C41F001012164410705D5D9072E
:1013A00003D0216C41F002012164810705D5D907E2
:1013B00003D0216C41F004012164010707D502F03C
:1013C0002001314303D0216C41F008012164216CDC
:1013D00000293AD0800604D5900602D5204600F0B8
:1013E0000DFC20684069216CC0F38010090700D40F
:1013F00060B3204600F0DBFB20684069400621D541
:101400002068143050E8001F21F0400140E800122D
:10141000002AF5D1A06BA8B16C490165A06BFEF75D
:1014200094FF002811D0A06B016D01B0BDE8F04021
:10143000084783060FD593060DD52046BDE8F84032
:1014400000F0DCBB2046FFF78DFFF8BD2046FFF71C
:1014500089FF2564F8BD266B2023012E79D1C606AD
:1014600077D5D60675D50868486800904869400663
:1014700040D5A16B086840680004000CEAD0A28D3A
:101480008242E7D9E085C869B0F5807F2DD0206819
:101490000C3050E8001F21F4807140E80012002A4F
:1014A000F5D12068143050E8001F21F0010140E818
:1014B0000012002AF5D12068143050E8001F21F0F6
:1014C000400140E80012002AF5D184F83E3025633F
:1014D00020680C3050E8001F21F0100140E8001295
:1014E000002AF5D1A06BFEF7E7FEA08DE18D401A32
:1014F00081B229E0A08DE18D401A81B2E08D0028F3
:10150000A8D00029A6D020680C3050E8002F22F483
:10151000907240E80026002EF5D12068143050E883
:10152000002F22F0010240E80026002EF5D184F8B9
:101530003E30256320680C3050E8002F22F0100266
:1015400040E80023002BF5D12046FFF70AFFF8BD45
:10155000FFE705062BD5150629D594F83D0021286F
:10156000F5D1A068B0F5805F01D12069B0B1206AE3
:10157000411C2162216800784860E08C401E000414
:10158000000CE084E3D12068C16821F08001C160D3
:101590002068C16841F04001C160D8E7206A008836
:1015A000C0F308004860206A801C2062E5E740061E
:1015B000CDD55006CBD5CA68204622F04002CA607D
:1015C00084F83D3000F0D9F8C1E700009F1B000807
:1015D00070B5040004D094F83D00002510B106E079
:1015E000012070BD84F83C50204600F023F82420F0
:1015F00084F83D002068C16821F40051C160204694
:1016000000F05CFB2068016921F4904101612068D1
:10161000416921F02A0141612068C16841F400510B
:10162000C1602564202084F83D0084F83E0000203D
:1016300070BD0000F0B587B0044614216846FEF77F
:10164000FDFD1D492068884234D11C4800210268F4
:1016500042F020020260006800F020000590174868
:101660001438026842F001020260006802AA00F029
:10167000010005900124082682E852004FF4006022
:101680000225CDE900050E4F69463846FEF782FE79
:1016900020030090CDE90154CDE903466946384660
:1016A000FEF778FE002211464720FEF7D7FF4720BD
:1016B000FEF7C6FF07B0F0BD0014014044380240F9
:1016C00000000240704700002DE9F843044690F8FE
:1016D0003D001F4616460D4620284CD1C5B1BEB16F
:1016E00094F83C00012846D0012084F83C004FF0DB
:1016F0000008C4F84080212084F83D00FEF740FF38
:10170000A6848146E684A068B0F5805F03D004E03B
:101710000120BDE8F883206928B12E465FF000055E
:1017200084F83C800EE00026FAE78021204600F095
:101730004BFBA0B9AEB116F8010B21684860E08CF4
:10174000401EE084E08C4B464FF0000200970028DA
:10175000EBD14FF04001204600F036FB30B10320C2
:10176000D7E735F8020BC0F30800E6E7202084F83D
:101770003D000020CDE70220CBE77047FEE70000E8
:10178000F0B587B014216846FEF758FD21480024C3
:10179000016841F004010160016801F00401059154
:1017A000016841F080010160016801F0800105914C
:1017B000016841F001010160016801F0010105913A
:1017C000016841F0020101600068012200F002009E
:1017D000114E5503059029463046FEF7CBFE0F4FBC
:1017E000012210213846FEF7C5FE00950125CDE9FE
:1017F0000154694630460394FEF7CCFD1020CDE934
:1018000000050220CDE9024069463846FEF7C2FDD8
:1018100007B0F0BD3038024000080240000002402E
:101820000F4810B50D4901604FF4827141600021ED
:1018300002228160C0E903120122426152028261E8
:101840001022C0E90721416281620A21C162FFF7CB
:10185000D9F9002801D072B6FEE710BD0030014072
:101860004000002010B586B0002417480094019471
:101870000294039404944FF080410594016042F275
:10188000CF01C0E9011440F2E731C0E9031480211F
:101890008161FFF7A3FB08B172B6FEE74FF48050F9
:1018A000009069460848FFF719FC08B172B6FEE7D8
:1018B000049404A904480594FFF752FB002801D0C2
:1018C00072B6FEE706B010BD98000020FEE7FEE706
:1018D0007047000038B504461248134B0068B0FB4F
:1018E000F3F04FF47A73584300906068B0F5827F4C
:1018F0000DD10B46009200228021204600F016F800
:1019000070B1606D40F020006065032038BD009824
:1019100030B1401E009020688068C0430006F6D5B4
:10192000002038BD3800002000366E012DE9F84354
:101930001E46914688460446089DFEF721FE401B40
:10194000351AFEF71DFE074625480068C0F3CB3068
:10195000684338E0701C37D0FEF712FEC01BA84267
:1019600003D215B1009860B32CE02068416821F0E3
:10197000E00141606068B0F5827F0BD1A068B0F5EE
:10198000004F02D0B0F5806F04D12068016821F0CB
:1019900040010160A06AB0F5005F09D120680168CC
:1019A00021F4005101602068016841F40051016098
:1019B000012084F85100002084F850000320BDE885
:1019C000F8830025401E00902068816838EA0100F5
:1019D00004D000214945BDD10020F0E70121F9E7FD
:1019E000380000207047FEF7D1BD000030B593B03D
:1019F00030216846FEF722FC14210CA8FEF71EFCDD
:101A00001D480024016841F080510160006800F029
:101A1000805011901948016821F4404141F400417F
:101A200001600068022500F44040119001200390FD
:101A300010200490009506950820CDE90740542019
:101A4000CDE9090504200B906846FEF725FF08B193
:101A500072B6FEE70F20CDE90C054FF48050CDE9BA
:101A60000E4002210CA81094FEF72AFE002801D097
:101A700072B6FEE713B030BD40380240007000403F
:101A80000248016841F470010160704788ED00E090
:101A90000148FFF792BB000098000020F0B50268F3
:101AA0001D4B1E4C9F031E4D1E4E984207D0B84240
:101AB00005D0A04203D0A84201D0B04204D122F008
:101AC000700C4A6842EA0C02984210D0B8420ED01C
:101AD000A0420CD0A8420AD0B04208D0124CA0427A
:101AE00005D0124CA04202D0114CA04203D122F4E6
:101AF0004074CA6822434C6922F08002224302608B
:101B00008A68C2620A688262984201D109690163E7
:101B100001214161F0BD00000000014000040040CF
:101B200000080040000C004000400140004401401B
:101B30000048014010B5846842EA032224F47F443F
:101B40000A432243826010BD826822F070020A4379
:101B500042F007018160704710B5036A046A24F0FF
:101B600001040462846924F0F00444EA021423F0BE
:101B70000A020A438461026210BD10B5036A23F0B1
:101B8000100303628369046A23F4704343EA023258
:101B900024F0A00343EA01118261016210BD10B577
:101BA000806B0021C185C184FFF7DCFB10BD01689B
:101BB0000C3151E8002F22F4907241E80023002BF1
:101BC000F5D10168143151E8002F22F0010241E8FB
:101BD0000023002BF5D1016B012909D101680C31DB
:101BE00051E8002F22F0100241E80023002BF5D12C
:101BF000202180F83E1000210163704708B590F85D
:101C00003E10222901D0022008BD82684FF4805383
:101C10009A4201D1016921B1816A9A421BD04AB12D
:101C20000AE00268816A5268C2F308020A80816A87
:101C3000891C08E0026972B10268526802F07F02F2
:101C40000A70816A491C8162C18D491E0904090C10
:101C5000C18503D019E002685268F1E70168CA68DB
:101C600022F02002CA600168CA6822F48072CA6049
:101C700001684A6922F001024A61202180F83E1081
:101C8000016B012903D0FFF71DFD002008BD0021D5
:101C9000016301680C3151E8002F22F0100241E885
:101CA0000023002BF5D101680A68D20602D50A6824
:101CB00049680091818DFFF754FBE6E770B5044653
:101CC00000680169E26821F4405111430161216912
:101CD000A068E26908436169114308432168CA6842
:101CE00049F20C639A430243CA6020684169A269C1
:101CF00021F440711143416131492068884202D08A
:101D00003049884202D1FEF785FD01E0FEF772FD01
:101D1000E2690023192164253226B2F5004F62687A
:101D200028D0A0FB0101930F9200FEF74FFA014665
:101D3000B0FBF5F06FF01802504301EB800006EBAA
:101D40000010B0FBF5F000F0F002B1FBF5F002EB93
:101D50000012B1FBF5F06FF01803584301EB80005F
:101D600006EB0010B0FBF5F000F00F002168104406
:101D7000886070BDA0FB010192185B41FEF726FA56
:101D80000146B0FBF5F00201B1FBF5F06FF018036E
:101D9000584301EB800006EBC000B0FBF5F000F00B
:101DA000F80002EB4002B1FBF5F0584301EB800074
:101DB00006EBC000B0FBF5F000F00700D6E700002E
:101DC00000100140001401402DE9F04198461746EB
:101DD0000E460446069D27E0681C25D02DB1FEF76F
:101DE000CFFBA0EB0800A8421ED920680C3050E8B9
:101DF000001F21F4D07140E80012002AF5D12068BC
:101E0000143050E8001F21F0010140E80012002AC0
:101E1000F5D1202084F83D0084F83E00002084F8AD
:101E20003C000320BDE8F0812068006836EA00002D
:101E300004D00020B842CFD00020F3E70120F9E71A
:101E40000148FFF791BA0000E0000020FEE7000023
:101E500010B500F05FF8014605A000F057FA00F059
:101E6000D7F80146BDE8104006A000F04FBA0000C8
:101E700057323551585820496E6974203A25640A02
:101E800000000000573235515858204944203A2567
:101E9000640A000010B500F0A1F900F035F9094C12
:101EA000002210212046FEF765FBC72000F016F93E
:101EB000012210212046FEF75DFBBDE8104000F036
:101EC00023B900000000024070B5040300F086F959
:101ED00000F01AF90E4D002210212846FEF74AFBA9
:101EE000202000F0FBF8C4F3074000F0F7F8C4F33B
:101EF000072000F0F3F8E0B200F0F0F80122102122
:101F00002846FEF737FBBDE8704000F0FDB8000042
:101F10000000024010B5104C002210212046FEF7B0
:101F200029FBFF2000F0DAF8012210212046FEF7FD
:101F300021FB00F06DF8094C208000F03DF8606056
:101F400004F1080000F0A2F821884FF46F408843A4
:101F500001D04FF0FF3010BD000002401C000020F7
:101F60002DE9F041134F15460C460646002210217C
:101F70003846FEF7FFFA032000F0B0F8C4F307403C
:101F800000F0ACF8C4F3072000F0A8F8E0B200F0CD
:101F9000A5F8002405E0FF2000F0A0F83055641CEF
:101FA000A4B2AC42F7D33846BDE8F041012210217B
:101FB000FEF7E0BA00000240F8B50024134E2246B6
:101FC000102130460094FEF7D5FA5A2000F086F82A
:101FD000002000F083F8002000F080F8842000F05A
:101FE0007DF8002000F07AF86D46FF2000F076F8CA
:101FF0002855641C042CF8D3012210213046FEF72A
:10200000B9FA0098401CC008F8BD0000000002406A
:1020100070B5114D0024224610212846FEF7AAFA79
:10202000902000F05BF8002000F058F8002000F04D
:1020300055F8002000F052F8FF2000F04FF844EA75
:102040000024FF2000F04AF8044301221021284612
:10205000FEF790FA204670BD0000024070B50A4DB0
:10206000002210212846FEF785FA052000F036F8F8
:10207000FF2000F033F80446012210212846FEF725
:1020800079FA204670BD00000000024070B5124E83
:1020900005460024224610213046FEF76BFA4B20FD
:1020A00000F01CF8002000F019F8002000F016F8ED
:1020B000002000F013F8002000F010F8FF2000F0DE
:1020C0000DF82855641C082CF8DB3046BDE870403C
:1020D00001221021FEF74EBA0000024001B582B085
:1020E00000208DF804000A200090012301AA02A913
:1020F0000448FEF72DFE10B1FF208DF804009DF876
:1021000004000EBD400000202DE91040FFF7A6FF9F
:10211000C007FBD110BD00002DE9F05FC1F30B0635
:10212000DFF88C800F0BC6F5805489468246154631
:10213000A24200D8144639038B464FF480524046E1
:10214000FFF70EFF002006E0321818F80210FF29F2
:1021500003D1401C80B2A042F6D3A04222D238461E
:10216000FFF7B2FE002006E01AF800208319401C99
:1021700008F8032080B2A042F6D359464FF48052AB
:102180004FEA080000F03EF8A5420FD0281BA244F9
:10219000A144002685B24FF480547F1CA542CAD8C2
:1021A0002C46C8E7224649465046EBE7BDE8F09F7B
:1021B0002401002010B5084C002210212046FEF713
:1021C000D9F90420FFF78AFF20460122BDE810401C
:1021D0001021FEF7CFB900000000024010B5084CF6
:1021E000002210212046FEF7C5F90620FFF776FFF2
:1021F00020460122BDE810401021FEF7BBB90000C7
:10220000000002402DE9F0410746C8B2C0F58074D5
:102210000E461546A24200D814464FF48078224656
:102220003146384600F00EF8A54208D0281B274456
:10223000264485B24446A542F1D82C46EFE7BDE8D6
:10224000F08100002DE9F04115460C460646FFF7E7
:10225000C5FF134F002210213846FEF78BF90220EC
:10226000FFF73CFFC4F30740FFF738FFC4F3072034
:10227000FFF734FFE0B2FFF731FF002404E0305DE8
:10228000FFF72CFF641CA4B2AC42F8D3012210214A
:102290003846FEF76FF9BDE8F041FFF735BF0000A3
:1022A0000000024070B5C0B0FFF798FF0025134E44
:1022B0002C4600BF06EBC400082205F54431FFF7A9
:1022C0002BFF641C0835032CF4DBFFF773FF0C496C
:1022D0000220401C8842FCDBFF2200216846FFF7F9
:1022E0003FFE00246D4607A0295D00F00FF8641C36
:1022F000FF2CF8DB40B0012070BD00000100002081
:10230000FE00010025303278000000000FB4054BBC
:1023100010B503A9044A029800F028F810BC5DF833
:1023200014FB0000D12700083C0000200907090E1B
:10233000002804DB00F1E02080F80014704700F072
:102340000F0000F1E02080F8141D704702E008C87B
:10235000121F08C1002AFAD170477047002001E01F
:1023600001C1121F002AFBD1704700002DE9FF4F69
:102370008DB00F460546002606E025280BD0DDE986
:102380000F1290476D1C761C28780028F5D111B0EB
:102390003046BDE8F08F0024A246A1460122EC4958
:1023A00000E0044315F8013F203B02FA03F0084225
:1023B000F7D128782A2810D06FF02F022878A0F1C2
:1023C0003001092914D80AEB8A0102EB410144F0DB
:1023D000020400EB010A6D1CF0E701CF5FEA000A7E
:1023E00003D544F40054CAF1000A44F002046D1C01
:1023F00028782E2817D115F8010F44F004042A2854
:102400000ED06FF02F022878A0F1300109290AD8E8
:1024100009EB890102EB410100EB01096D1CF2E7B8
:1024200057F8049B6D1C28786C280FD006DC4C28CC
:1024300017D068280DD06A2814D104E0742810D071
:102440007A280FD10DE044F400140AE044F480141B
:1024500001E044F440146978814202D104F580140B
:102460006D1C6D1C2A786E2A1FD00CDC632A31D0BB
:1024700004DC002A8BD0582A11D1A3E0642A68D04A
:10248000692A0CD165E0732A2ED004DC6F2A73D040
:10249000702A04D19BE0752A6FD0782A6ED010463E
:1024A000DDE90F129047761C50E1C4F30250022878
:1024B00006D0032809D0042801CF09D0066045E1E1
:1024C00001CFF117C0E9006140E101CF06803DE195
:1024D00006703BE117F8040B8DF8000000208DF822
:1024E0000100EB46012003E057F804BB4FF0FF303A
:1024F00061074FF0000102D40DE008F101018846A8
:1025000049450FDA8045F8DB1BF808100029F4D1A3
:1025100008E008F1010188468142FADB1BF8081047
:102520000029F6D1DDE90F23AAEB080081462146F8
:1025300000F036F9304400EB080604E0DDE90F1244
:102540001BF8010B9047B8F10108F7D22146484625
:10255000F7E00A21C4F302534FF0000B0891022B5D
:1025600004D001CFC117032B09D00AE0FF1D27F0CB
:102570000707F7E8020108E032E01FE020E000B2C0
:10258000C117042B01D140B2C117031E71F1000322
:1025900007DA4FF0000CD0EB0C006CEB01012D239F
:1025A00002E0230504D52B238DF82430012303E01A
:1025B000E30701D02023F7E7984658E00A2110E00E
:1025C00010210EE010204FF0000B08900CE01021BD
:1025D0004FF0000B44F004044FF00809089103E0A9
:1025E00008214FF0000B0891C4F30253022B04D0D2
:1025F00001CF0021032B06D006E0FF1D27F00707BF
:10260000F7E8020103E080B2042B00D1C0B24FF022
:10261000000823072BD5702A07D0DDF820C08CF0E6
:10262000100C5CEA0B0C05D00EE040238DF8243032
:10263000012308E050EA010306D030238DF824304E
:102640008DF8252002239846DDF820C08CF0080C78
:102650005CEA0B0C0BD150EA010301D1630706D5EC
:1026600030238DF824304FF00108A9F10109582AD0
:1026700004D038A20B9208AA0A920BE03AA2F9E71A
:102680005B46089AFDF7A2FD0B9B9B5C0A9A521EC3
:102690000A92137050EA0102F2D10A98ADEB0000E1
:1026A00000F1200B600702D524F4803401E04FF0E4
:1026B0000109D94502DDA9EB0B0000E0002000EB89
:1026C0000B0141440890AAEB010AE00306D4DDE9BE
:1026D0000F232146504600F063F806444FF00009EE
:1026E00008E009A911F80900DDE90F12904709F186
:1026F0000109761CC145F4DBE0030CD5DDE90F23AD
:102700002146504600F04CF8064404E0DDE90F1283
:1027100030209047761C0899481E08900029F5DC67
:1027200008E00A980A990078491C0A91DDE90F121D
:102730009047761CBBF10001ABF1010BF1DC2146A7
:102740005046DDE90F2300F019F806446D1C1BE626
:102750000928010030313233343536373839616277
:10276000636465660000000030313233343536373B
:102770003839414243444546000000002DE9F0410C
:10278000044600251E461746880404D405E0394651
:102790002020B0476D1C641EF9D52846BDE8F081A5
:1027A0002DE9F041044600251E469046C80301D598
:1027B000302700E02027880404D505E0414638464C
:1027C000B0476D1C641EF9D52846BDE8F0810000B5
:1027D00013B54FF6FF73012269460248FEF774FFF6
:1027E00000981CBDE0000020FDF7D8FEFFF7FEF8C2
:1027F000FEF7C6FFFFF714F8FFF734F81D481C4931
:102800000C2201604FF4E131416000218160C16020
:10281000C0E904128161C161FEF7DAFE08B172B647
:10282000FEE74FF47A70FDF7A3FD12484838FEF733
:102830001FFCFFF70DFBFFF72DFB6420FDF798FD54
:102840000DA0FFF763FDFFF72DFD41F2883401284D
:1028500006D011A0FFF75AFD2046FDF789FDF8E7E5
:1028600013A0FFF753FD2046FDF782FDF8E70000B7
:1028700000140140E000002057726974655F4D61EB
:10288000635F746F5F5732355133322E2E2E2E77A1
:10289000616974696E670A0057726974655F4D619A
:1028A00063206661696C65642E2E2E2E0A0000007E
:1028B00057726974655F4D6163204F4B2E2E2E2E2B
:1028C0000A000000000000000000000001020304F4
:1028D000060708090000000001020304FC280008A4
:1028E00000000020400000004C2300083C290008A4
:1028F00040000020E82000005C230008006E37E55F
:102900000F004B1200B32F3C16004B1200343F2631
:102910001C004B120000000000000000000000003E
:102920000000000000000000010000001000000096
:0C293000000000000024F4000000000083
:040000050800019559
:00000001FF
